:10000000B1C0CBC0CAC0C9C0C8C0C7C0C6C0C5C0C7
:10001000C4C0C3C0C2C039C3C0C0BFC0BEC0BDC061
:10002000BCC0BBC0BAC0B9C0B8C0B7C0B6C0B5C00C
:10003000B4C0B3C0084AD73B3BCE016E84BCBFFD01
:10004000C12F3D6C74319ABD56833DDA3D00C77FA8
:1000500011BED9E4BB4C3E916BAAAABE0000008041
:100060003F006E616E00696E660000407A10F35AC0
:1000700000A0724E18090010A5D4E80000E87648E8
:10008000170000E40B54020000CA9A3B000000E194
:10009000F505000080969800000040420F00000027
:1000A000A08601000000102700000000E803000007
:1000B00000006400000000000A00000000000100D1
:1000C000000000002C76D888DC674F0823DFC1DFF2
:1000D000AE59E1B1B796E5E3E453C63AE6519976F5
:1000E00096E8E6C28426EB898C9B62ED407C6FFC2F
:1000F000EFBC9C9F40F2BAA56FA5F490055A2AF771
:100100005C936B6CF9676DC11BFCE0E40D47FEF579
:1001100020E6B500D0ED902E0300943577050080E1
:10012000841E080000204E0A000000C80C33333340
:10013000330F986E12831141EF8D2114893BE655E0
:1001400016CFFEE6DB18D1844B381BF77C1D901DC3
:10015000A4BBE424203284725E228100C9F124EC25
:10016000A1E53D2711241FBECFEFD4E0DEBFCDBFF8
:1001700011E0A0E0B1E0EEE1FDE102C005900D92DA
:10018000A633B107D9F721E0A6E3B1E001C01D9283
:10019000A23AB207E1F739D2C0CD32CFDF92EF9267
:1001A000FF920F931F93CF93DF93182FD62ED42F48
:1001B000C52F662321F180ED37D5812F8BD583E0C4
:1001C0008A95F1F7000081ED2FD50D2F1C2FC0E08F
:1001D000D0E0ED2CF12CE1E0EE1AF108CE15DF05B0
:1001E00021F4B3D5F801808303C095D5F80180834D
:1001F00021960F5F1F4FCD1588F35CD501C0D12C20
:100200008D2DDF91CF911F910F91FF90EF90DF9097
:100210000895AB0161E0C2DF0895FF920F931F9331
:10022000CF93DF93C82F062FF42E152F662369F086
:1002300080EDFAD48C2F4ED5CF2DD12F10E089919F
:1002400049D51F5F1013FBCF35D5DF91CF911F919B
:100250000F91FF900895CF93DF931F92CDB7DEB734
:100260006983AE014F5F5F4F61E0D7DF0F90DF9191
:10027000CF910895EF92FF920F931F93CF93DF9347
:100280001F92CDB7DEB7182FE62EF42E022F44238F
:1002900081F11982BE016F5F7F4FBBDF882349F177
:1002A0006E2D70E06F1971096F5F7F4FE1E0F0E034
:1002B000AF0102C0440F551FFA94E2F741505109B3
:1002C000062E02C0440F551F0A94E2F7202F30E09B
:1002D000C90102C0880F991F6A95E2F7BC01942FEB
:1002E0009095898189234623682F642B6983812F08
:1002F000B2DF0F90DF91CF911F910F91FF90EF90A0
:100300000895FF920F931F93CF93DF931F92CDB762
:10031000DEB7182F062FF42EBE016F5F7F4F79DFF7
:10032000FF2059F021E030E0B90102C0660F771FCD
:100330000A95E2F78981682B0BC021E030E0B90112
:1003400002C0660F771F0A95E2F7609589816823DE
:100350006983812F80DF0F90DF91CF911F910F91E3
:10036000FF90089540E066E08BE6CBDF089556D419
:1003700083E08A95F1F7000087EA91E60197F1F7AB
:1003800000C00000EFDF83EC99E00197F1F700C0B7
:10039000000022E043E062E08BE66CDF20E043E017
:1003A00062E08AE167DF60E089E155DF20E042E05A
:1003B00064E08BE15FDF20E042E064E08CE15ADF43
:1003C00008958F929F92AF92BF92CF92DF92EF9259
:1003D000FF920F931F93CF93DF934C015B016A0150
:1003E000E90148E451E06EE08BE3D8DE209148015A
:1003F0008091490190E0922BF401918380832091B8
:100400004A0180914B0190E0922BF501918380830A
:1004100020914C0180914D0190E0922BF601918347
:100420008083209150018091510190E0922B99831B
:100430008883209152018091530190E0922BF80122
:1004400091838083209154018091550190E0922BFB
:10045000F70191838083DF91CF911F910F91FF90DE
:10046000EF90DF90CF90BF90AF909F908F900895C6
:100470002F923F924F925F926F927F928F929F92B4
:10048000AF92BF92CF92DF92EF92FF920F931F93A2
:10049000CF93DF93CDB7DEB72C970FB6F894DEBFBE
:1004A0000FBECDBF3C014B015A0169012801170164
:1004B0001A8219821C821B821E821D8218861F824C
:1004C0001A8619861C861B86CE010B967C018E012E
:1004D000075F1F4F9E01295F3F4FAE014B5F5F4F8C
:1004E000BE016D5F7F4F0A976CDF69817A81882733
:1004F00077FD8095982FA9D520E030E040E858E3BB
:1005000084D6F30160837183828393836B817C81C2
:10051000882777FD8095982F98D520E030E040E837
:1005200058E373D6F40160837183828393836D8172
:100530007E81882777FD8095982F87D520E030E051
:1005400040E858E362D6F501608371838283938328
:100550006F817885882777FD8095982F76D520E064
:1005600030E043E053E4D6D4F601608371838283A4
:10057000938369857A85882777FD8095982F65D53F
:1005800020E030E043E053E4C5D4F201608371839E
:10059000828393836B857C85882777FD8095982F50
:1005A00054D520E030E043E053E4B4D4F10160835B
:1005B0007183828393832C960FB6F894DEBF0FBEAF
:1005C000CDBFDF91CF911F910F91FF90EF90DF9002
:1005D000CF90BF90AF909F908F907F906F905F90E3
:1005E0004F903F902F900895CF93C82F8A3011F4E9
:1005F0008DE0FADFE0ECF0E0908195FFFDCFC09355
:10060000C60080E090E0CF9108951092C5008CE084
:100610008093C40088E18093C10080E091E09093D2
:100620009F0180939E0182E88AB9A1DE87B18F6025
:1006300087B98AB188668AB9239A8BB180668BB9EB
:100640002B9AE0E8F0E0808180688083E1E8F0E0C8
:10065000808188608083EFE6F0E080818260808323
:10066000789484E690E09093890080938800E1E894
:10067000F0E080818560808384B5816A84BD85B522
:10068000846085BD84E687BDFFCF1F920F920FB6B1
:100690000F9211244F925F926F927F928F929F924E
:1006A000AF92BF92CF92DF92EF92FF920F931F9380
:1006B0002F933F934F935F936F937F938F939F936A
:1006C000AF93BF93EF93FF93CF93DF93CDB7DEB795
:1006D0006897DEBFCDBF98B181E0892788B90F2E1A
:1006E000F8E8EF2EF1E0FF2EF02D04E711E020E70F
:1006F00031E04AE551E066E671E086E591E0B8DE7A
:100700006091360170913701882777FD8095982F89
:100710009CD46B017C01209170013091710140915A
:1007200072015091730171D520E030E040E05FE349
:100730006CD54B015C012091980130919901409159
:100740009A0150919B01C701B6015FD520E030E0CE
:1007500040E05FE35AD59B01AC01C501B40110D361
:10076000209194013091950140919601509197010B
:1007700006D369837A838B839C83609398017093FB
:10078000990180939A0190939B012091740130917B
:1007900075014091760150917701C701B60135D5B9
:1007A00020E030E040E05FE330D54B015C01209178
:1007B0006201309163014091640150916501C7016C
:1007C000B60123D520E030E040E05FE31ED59B0179
:1007D000AC01C501B401D4D220916A0130916B0102
:1007E00040916C0150916D01CAD26D837E838F83DD
:1007F0009887609362017093630180936401909382
:100800006501209188013091890140918A015091C0
:100810008B01C701B601F9D420E030E040E05FE38E
:10082000F4D44B015C012091800130918101409111
:10083000820150918301C701B601E7D420E030E086
:1008400040E05FE3E2D49B01AC01C501B40198D262
:1008500020918C0130918D0140918E0150918F013A
:100860008ED269877A878B879C876093800170938B
:100870008101809382019093830140905A015090AE
:100880005B0160905C0170905D01809066019090CA
:100890006701A0906801B0906901A3019201C501B0
:1008A000B401E1D220E030E044E353E4AED42BEDD8
:1008B0003FE049E450E42ED36D877E878F87988B85
:1008C00060939401709395018093960190939701A2
:1008D000C0905601D0905701E0905801F090590116
:1008E000A3019201C701B601BED220E030E044E38B
:1008F00053E48BD42BED3FE049E450E40BD3698BF8
:100900007A8B8B8B9C8B60936A0170936B018093C5
:100910006C0190936D01A5019401C701B601A3D2AA
:1009200020E030E044E353E470D42BED3FE049E4B1
:1009300050E4F0D26D8B7E8B8F8B988F60938C01FF
:1009400070938D0180938E0190938F01A090380158
:10095000B0903901B501882777FD8095982F75D320
:100960006B017C0161E070E06A197B09882777FDE3
:100970008095982F6AD32B013C012091440130913E
:100980004501409146015091470169817A818B81EF
:100990009C81F6D19B01AC01C701B60136D44B0155
:1009A0005C01A30192016D857E858F8598892DD488
:1009B0009B01AC01C501B401E3D14B015C01609323
:1009C0004401709345018093460190934701209123
:1009D00040013091410140914201509143016D81AC
:1009E0007E818F819885CCD19B01AC01C701B60176
:1009F0000CD469837A838B839C83A30192016989D8
:100A00007A898B899C8901D49B01AC0169817A81A7
:100A10008B819C81B5D1609340017093410180939B
:100A200042019093430120913C0130913D0140915E
:100A30003E0150913F0169857A858B859C85A0D1C7
:100A40009B01AC01C701B601E0D36B017C01A3019E
:100A500092016D897E898F89988DD7D39B01AC01D6
:100A6000C701B6018DD160933C0170933D01809325
:100A70003E0190933F0120E030E04BE253ECC50192
:100A8000B40144D288230CF04BC02DEC3CE442E38B
:100A900053ECC501B401AED318160CF041C020E0F0
:100AA00030E044E353E4C501B4016AD160937A01B4
:100AB00070937B0180937C0190937D012AE234E561
:100AC00048EA5DE3A2D327ED31EE46E75DE358D176
:100AD00020E030E040E853E498D384D260933A01B8
:100AE00070933B0167BD80917D018F9380917C0164
:100AF0008F9380917B018F9380917A018F93809166
:100B00003B018F9380913A018F938EE091E09F9308
:100B10008F9394D80FB6F894DEBF0FBECDBF57C0E9
:100B200020E030E04BE253E4C501B40163D3181672
:100B30000CF04BC02DEC3CE442E353E4C501B4019E
:100B4000E5D188230CF041C0A501940160E070E07C
:100B500084E393E414D160937A0170937B018093D2
:100B60007C0190937D012AE234E548EA5DE34DD3B0
:100B700027ED31EE46E75DE303D120E030E040E8C9
:100B800053E443D32FD260933A0170933B0168BD85
:100B900080917D018F9380917C018F9380917B0167
:100BA0008F9380917A018F9380913B018F938091F5
:100BB0003A018F9382E291E09F938F933FD80FB6D3
:100BC000F894DEBF0FBECDBF02C017BC18BC68963C
:100BD0000FB6F894DEBF0FBECDBFDF91CF91FF916E
:100BE000EF91BF91AF919F918F917F916F915F91A5
:100BF0004F913F912F911F910F91FF90EF90DF90B8
:100C0000CF90BF90AF909F908F907F906F905F90AC
:100C10004F900F900FBE0F901F9018951092B90033
:100C20008CE08093B800089594EA9093BC004FEF55
:100C300050E060E070E0ECEBF0E09081992334F05C
:100C40004150510961097109C0F704C0452B462B79
:100C5000472B41F19091B900987F983011F0903175
:100C600019F58093BB0084E88093BC008FEF90E07F
:100C7000A0E0B0E0ECEBF0E0208122232CF0019723
:100C8000A109B109C8F704C0892B8A2B8B2B71F0FD
:100C90009091B900987F983159F081E0903449F4EF
:100CA00080E0089581E0089581E0089581E008954D
:100CB00080E0089584E98093BC0080E090E0ECEB54
:100CC000F0E0208124FF05C00196811521E0920704
:100CD000C1F708958093BB0084E88093BC008FEF38
:100CE00090E0A0E0B0E0ECEBF0E0208122232CF0DB
:100CF0000197A109B109C8F704C0892B8A2B8B2B56
:100D000041F09091B900987F81E0983219F480E029
:100D1000089581E0089584EC8093BC008FEF90E00B
:100D2000A0E0B0E0ECEBF0E0208122232CF0019772
:100D3000A109B109C8F704C0892B8A2B8B2B19F0A4
:100D40008091BB00089580E0089584E88093BC0002
:100D50008FEF90E0A0E0B0E0ECEBF0E02081222308
:100D60002CF00197A109B109C8F704C0892B8A2B7F
:100D70008B2B19F08091BB00089580E008955058A6
:100D8000BB27AA270ED0FCC1EDD130F0F2D120F064
:100D900031F49F3F11F41EF4BDC10EF4E095E7FB62
:100DA000B3C1E92FFED180F3BA1762077307840736
:100DB000950718F071F49EF516C20EF4E0950B2E0F
:100DC000BA2FA02D0B01B90190010C01CA01A0019D
:100DD0001124FF27591B99F0593F50F4503E68F1F8
:100DE0001A16F040A22F232F342F4427585FF3CF39
:100DF000469537952795A795F0405395C9F77EF40A
:100E00001F16BA0B620B730B840BBAF09150A1F052
:100E1000FF0FBB1F661F771F881FC2F70EC0BA0FD8
:100E2000621F731F841F48F4879577956795B79560
:100E3000F7959E3F08F0B3CF9395880F08F0992758
:100E4000EE0F9795879508958DD158F080E891E041
:100E500009F49EEF8ED128F040E851E059F45EEF9E
:100E600009C058C1C0C1E92FE0789BD168F3092EB1
:100E7000052AC1F3261737074807590738F00E2E01
:100E800007F8E02569F0E025E0640AC0EF6307F8A1
:100E9000009407FADB01B9019D01DC01CA01AD0133
:100EA000EF9347D06DD10AD05F91552331F02BEDF0
:100EB0003FE049E450FD49EC63CF0895DF93DD271F
:100EC000B92FBF7740E85FE31616170648075B07A0
:100ED00010F4D92F93D19F938F937F936F93F8D171
:100EE000E4E3F0E01AD14CD12F913F914F915F9103
:100EF00098D1DD2349F09058A2EA2AED3FE049EC71
:100F00005FE3D0785D274DDFDF913AC1D9D008F497
:100F100081E008950CD034C12CD140F023D130F0C1
:100F200021F45F3F19F0F0C051115EC1F3C039D117
:100F300098F39923C9F35523B1F3951B550BBB27A0
:100F4000AA2762177307840738F09F5F5F4F220F4D
:100F5000331F441FAA1FA9F333D00E2E3AF0E0E846
:100F600030D091505040E695001CCAF729D0FE2F92
:100F700027D0660F771F881FBB1F26173707480724
:100F8000AB07B0E809F0BB0B802DBF01FF279358DA
:100F90005F4F2AF09E3F510568F0B6C025C15F3F04
:100FA000ECF3983EDCF3869577956795B795F795C2
:100FB0009F5FC9F7880F911D9695879597F90895BA
:100FC000E1E0660F771F881FBB1F62177307840756
:100FD000BA0720F0621B730B840BBA0BEE1F88F765
:100FE000E095089504D06894B111FEC00895E1D051
:100FF00088F09F5790F0B92F9927B751A0F0D1F002
:10100000660F771F881F991F1AF0BA95C9F712C08B
:10101000B13081F0E8D0B1E00895E5C0672F782FB6
:101020008827B85F39F0B93FCCF3869577956795F7
:10103000B395D9F73EF490958095709561957F4F63
:101040008F4F9F4F0895E89409C097FB3EF4909509
:101050008095709561957F4F8F4F9F4F9923A9F091
:10106000F92F96E9BB279395F69587957795679520
:10107000B795F111F8CFFAF4BB0F11F460FF1BC064
:101080006F5F7F4F8F4F9F4F16C0882311F096E9F7
:1010900011C0772321F09EE8872F762F05C06623A5
:1010A00071F096E8862F70E060E02AF09A95660F5E
:1010B000771F881FDAF7880F9695879597F9089517
:1010C000990F0008550FAA0BE0E8FEEF1616170659
:1010D000E807F907C0F012161306E407F50798F0C1
:1010E000621B730B840B950B39F40A2661F0232BDA
:1010F000242B252B21F408950A2609F4A140A69556
:101100008FEF811D811D089597F99F6780E870E03A
:1011100060E008959FEF80EC0895DF93CF931F93D5
:101120000F93FF92EF92DF927B018C01689405C0D0
:10113000DA2EEF0176D0FE01E894A5912591359144
:1011400045915591AEF3EF012CDEFE019701A80108
:10115000DA9479F7DF90EF90FF900F911F91CF9184
:10116000DF91089500240A9416161706180609063A
:10117000089500240A94121613061406050608950D
:10118000092E0394000C11F4882352F0BB0F40F495
:10119000BF2B11F460FF04C06F5F7F4F8F4F9F4FD5
:1011A000089557FD9058440F551F59F05F3F71F057
:1011B0004795880F97FB991F61F09F3F79F08795BE
:1011C0000895121613061406551FF2CF4695F1DF47
:1011D00008C0161617061806991FF1CF86957105D7
:1011E000610508940895E894BB2766277727CB010B
:1011F00097F9089565DF08F48FEF08959B01AC011E
:1012000060E070E080E89FE385CE0BD0B9CFAADF25
:1012100028F0AFDF18F0952309F076CF7BCF1124AB
:10122000E3CFBFDFA0F3959FD1F3950F50E0551F9B
:10123000629FF001729FBB27F00DB11D639FAA272B
:10124000F00DB11DAA1F649F6627B00DA11D661F7A
:10125000829F2227B00DA11D621F739FB00DA11D9B
:10126000621F839FA00D611D221F749F3327A00D55
:10127000611D231F849F600D211D822F762F6A2FF1
:1012800011249F5750408AF0E1F088234AF0EE0F76
:10129000FF1FBB1F661F771F881F91505040A9F783
:1012A0009E3F510570F030CF9FCF5F3FECF3983EEB
:1012B000DCF3869577956795B795F795E7959F5FEA
:1012C000C1F7FE2B880F911D9695879597F9089584
:1012D0009B01AC019ACFA3E1B0E0E0E7F9E057C38E
:1012E0007C011B016A01FC0117821682838181FF48
:1012F00049C3BE016F5F7F4F4B01F7019381F1013D
:1013000093FD859193FF81911F01882309F436C3D2
:10131000853239F493FD859193FF81911F018532C8
:1013200031F4B70190E058D456016501E6CF10E0E2
:10133000512C20E02032A0F48B3269F030F480325E
:1013400059F0833269F420612CC08D3239F080333A
:1013500039F4216026C02260246023C0286021C0A7
:1013600027FD27C030ED380F3A3078F426FF06C04D
:10137000FAE01F9F300D1124132F13C06AE0569E10
:10138000300D1124532E20620CC08E3221F426FD24
:10139000F5C2206406C08C3611F4206802C088367D
:1013A00041F4F10193FD859193FF81911F0181111A
:1013B000C1CF9BEB980F933018F42061805E06C07C
:1013C0009BE9980F933008F09AC12F7E26FF16E014
:1013D0002F73722E853621F4F22FF0647F2E08C011
:1013E000863621F4622F6068762E02C011111150EA
:1013F00077FE07C01C3348F444244394410E27E091
:101400000BC0183030F4212F06C027E04CE3442EE7
:1014100003C027E017E0412C560174E0A70EB11C71
:10142000F6016081718182819381042DA401E6D24D
:101430006C01098100FF02C003FF06C071FC07C0F8
:1014400072FC08C0612C08C03DE2632E05C02BE28F
:10145000622E02C090E2692E802F8C7081F166208E
:1014600011F084E001C083E0851510F0512C0AC012
:10147000581A73FC07C0B70180E290E0ADD35A94CC
:10148000D1F7F4CF662021F0B701862D90E0A4D3E8
:1014900003FD03C006E610E002C002E610E0F72DEF
:1014A000F0717F2EF8018491882309F45EC27110D7
:1014B0008052B70190E090D30F5F1F4FF3CF77FEBC
:1014C0000FC04C0C04FF04C08A81813309F44A9494
:1014D000141474F5F8E0F41578F588E0482E2CC063
:1014E00076FC2AC0812F90E08C159D059CF06CEF56
:1014F000C6166FEFD60674F0772D7068772E0AC087
:10150000E2E0F0E0EC0FFD1FE10FF11D8081803380
:1015100019F411501111F4CF77FE0EC044244394F6
:10152000410E812F90E0C816D9062CF41C1904C076
:101530004424439401C010E077FE07C01C141D042E
:101540003CF496012F5F3F4F05C025E030E002C01C
:1015500021E030E0662011F02F5F3F4F112331F082
:10156000412F50E04F5F5F4F240F351F452D50E056
:101570002417350714F4521A01C0512C872D897095
:1015800041F4552031F0B70180E290E025D35A9420
:10159000F8CF662021F0B701862D90E01DD373FCB3
:1015A00008C0552031F0B70180E390E015D35A947C
:1015B000F8CF77FE5DC09C2D8D2DD7FE02C090E048
:1015C00080E0692E782E40E050E0C6018419910930
:1015D0009D878C87960126193709280D391D812F83
:1015E00090E0EE27FF27E81BF90BFF87EE87FFEF60
:1015F0006F167F0661F4B7018EE290E02B8B3A8B79
:10160000488B598BE9D2598948893A892B89C61464
:10161000D70454F06C857D85661577052CF4F901A7
:10162000E40FF51F818101C080E371E0671A710842
:101630004F5F5F4FEE85FF856E167F0664F0B70142
:1016400090E02B8B3A8B488B598BC6D22B893A89E9
:1016500048895989CCCF6C147D0439F49A8196332A
:1016600018F4953311F404FF81E3B70190E045C00D
:101670008A81813309F00F7EB70190E0ADD211115C
:1016800005C074FE16C085E490E015C0B7018EE277
:1016900090E0A2D282E066246394680EF401E80F21
:1016A000F11D8081B70190E097D2115051F3862D42
:1016B000F2CF85E690E0B7018FD2D7FC05C0C11408
:1016C000D10439F404FF05C0D194C194D1088DE24E
:1016D00001C08BE2B70190E07FD280E36AE0C616DA
:1016E000D1042CF08F5FFAE0CF1AD108F7CFB70101
:1016F00090E072D2B701C601C0966ED236C1833671
:1017000031F0833779F0833509F054C020C0560199
:1017100072E0A70EB11CF6018081898301E010E020
:10172000640113C05601F2E0AF0EB11CF601C08097
:10173000D18026FF03C0612F70E002C06FEF7FEF02
:10174000C6012B8B3ED28C012B892F7714C05601FA
:10175000F2E0AF0EB11CF601C080D18026FF03C0BD
:10176000612F70E002C06FEF7FEFC6012B8B1ED29E
:101770008C012B892068722E23FD18C0852D90E0E6
:101780000817190798F4B70180E290E025D25A941F
:10179000F5CFF60177FC859177FE81916F01B70156
:1017A00090E01AD251105A940150110901151105F7
:1017B00081F7DBC0843611F0893649F5560127FFE1
:1017C00009C0F4E0AF0EB11CF60160817181828125
:1017D00093810AC0F2E0AF0EB11CF6016081718105
:1017E000882777FD8095982F022F0F7697FF08C0E6
:1017F00090958095709561957F4F8F4F9F4F0068B2
:101800002AE030E0A4012BD2C82EC8183DC0022F18
:10181000853721F40F7E2AE030E01DC0097F8F3626
:1018200091F018F4883559F0A9C0803719F088373D
:1018300011F0A4C0006104FF09C0046007C024FFC8
:1018400008C0066006C028E030E005C020E130E0B6
:1018500002C020E132E0560107FF09C0F4E0AF0EFC
:10186000B11CF601608171818281938108C0F2E030
:10187000AF0EB11CF6016081718180E090E0A4019F
:10188000EED1C82EC8180F7706FF0BC0202F2E7F71
:10189000C11650F404FF0AC002FD08C0202F2E7E9E
:1018A00005C0DC2C202F03C0DC2C01C0D12E24FF6E
:1018B0000DC0FE01EC0DF11D8081803311F4297EF5
:1018C00009C022FF06C0D394D39404C0822F867827
:1018D00009F0D39423FD12C020FF06C01C2DD5149F
:1018E00018F4150D1D19D52CD51460F4B70180E23C
:1018F00090E02B8B71D1D3942B89F6CFD51410F4B3
:101900005D1801C0512C24FF11C0B70180E390E0A5
:101910002B8B62D12B8922FF16C021FF03C088E5E3
:1019200090E002C088E790E0B7010CC0822F867873
:1019300051F021FD02C080E201C08BE227FD8DE263
:10194000B70190E049D1C11630F4B70180E390E0CF
:1019500043D11150F8CFCA94F401EC0DF11D8081F0
:10196000B70190E039D1C110F6CF552009F4DDCC94
:10197000B70180E290E030D15A94F7CFF701868129
:10198000978102C08FEF9FEF6396E2E11CC02F9218
:101990003F924F925F926F927F928F929F92AF92FF
:1019A000BF92CF92DF92EF92FF920F931F93CF934C
:1019B000DF93CDB7DEB7CA1BDB0B0FB6F894DEBFE3
:1019C0000FBECDBF09942A88398848885F846E8409
:1019D0007D848C849B84AA84B984C884DF80EE8053
:1019E000FD800C811B81AA81B981CE0FD11D0FB65C
:1019F000F894DEBF0FBECDBFED010895283008F08A
:101A000027E03327DA01990F311D87FD9160009699
:101A10006105710539F432602E5F3D9330E32A95FC
:101A2000E1F708959F3F30F080387105610509F0B6
:101A30003C5F3C5F3D93913008F08068911DDF93DF
:101A4000CF931F930F93FF92EF92192F987F969544
:101A5000E92F96959695E90FFF27EC53FF4F9927AD
:101A60003327EE24FF24A701E7010590089407948B
:101A700028F4360FE71EF81E491F511D660F771F09
:101A8000881F991F0694A1F70590079428F4E70E84
:101A9000F81E491F561FC11D770F881F991F661F0B
:101AA0000694A1F70590079428F4F80E491F561FD5
:101AB000C71FD11D880F991F661F771F0694A1F7B6
:101AC0000590079420F4490F561FC71FD81F990F80
:101AD000661F771F881F0694A9F7849110951770C9
:101AE00041F0D695C79557954795F794E7941A9581
:101AF000C1F7EAE6F0E0689415901591359165918B
:101B0000959105907FE27395E118F10A430B560B0E
:101B1000C90BD009C0F7E10CF11E431F561FC91FA6
:101B2000D01D7EF4703311F48A95E6CFE89401500D
:101B300030F0080F0AF40027021708F4202F23952D
:101B4000022F7A3328F079E37D932A95E9F710C0C4
:101B50007D932A9589F606949795679537951795FD
:101B60001794E118F10A430B560BC90BD00998F0F2
:101B700023957E9173957A3308F070E37C9320135C
:101B8000B8F77E9170617D9330F0839571E37D931A
:101B900070E32A95E1F71124EF90FF900F911F91C8
:101BA000CF91DF91992787FD90950895FC010590CD
:101BB000615070400110D8F7809590958E0F9F1F4F
:101BC0000895FC016150704001900110D8F7809594
:101BD00090958E0F9F1F08950F931F93CF93DF93C0
:101BE000182F092FEB018B8181FD03C08FEF9FEF31
:101BF00020C082FF10C04E815F812C813D81421741
:101C000053077CF4E881F9819F012F5F3F4F3983AF
:101C10002883108306C0E885F985812F0995892BD3
:101C200029F72E813F812F5F3F4F3F832E83812FE6
:101C3000902FDF91CF911F910F910895A0E0B0E018
:101C4000E3E2FEE0B4CEFE01359661917191AF0101
:101C500080919E0190919F013EDBE2E0C4CEFA01AB
:101C6000AA27283051F1203181F1E8946F936E7FDB
:101C70006E5F7F4F8F4F9F4FAF4FB1E03ED0B4E0CC
:101C80003CD0670F781F891F9A1FA11D680F791F0D
:101C90008A1F911DA11D6A0F711D811D911DA11D1E
:101CA00020D009F468943F912AE0269F112430192E
:101CB000305D3193DEF6CF010895462F4770405DC9
:101CC0004193B3E00FD0C9F7F6CF462F4F70405D78
:101CD0004A3318F0495D31FD4052419302D0A9F7D3
:101CE000EACFB4E0A6959795879577956795BA95CD
:101CF000C9F700976105710508959B01AC010A2E93
:101D000006945795479537952795BA95C9F7620F69
:0E1D1000731F841F951FA01D0895F894FFCF28
:101D1E000000000200000000F40200000000256434
:101D2E003B20207269676874202020202025663BA6
:101D3E000A0025643B2020206C656674202020203C
:061D4E002025663B0A009F
:00000001FF
